{
  "contractName": "MarketPlace",
  "abi": [
    {
      "inputs": [
        {
          "internalType": "address",
          "name": "",
          "type": "address"
        },
        {
          "internalType": "uint256",
          "name": "",
          "type": "uint256"
        }
      ],
      "name": "OwnedItems",
      "outputs": [
        {
          "internalType": "uint256",
          "name": "",
          "type": "uint256"
        }
      ],
      "stateMutability": "view",
      "type": "function",
      "constant": true
    },
    {
      "inputs": [],
      "name": "itemcount",
      "outputs": [
        {
          "internalType": "uint256",
          "name": "",
          "type": "uint256"
        }
      ],
      "stateMutability": "view",
      "type": "function",
      "constant": true
    },
    {
      "inputs": [
        {
          "internalType": "uint256",
          "name": "",
          "type": "uint256"
        }
      ],
      "name": "items",
      "outputs": [
        {
          "internalType": "uint256",
          "name": "id",
          "type": "uint256"
        },
        {
          "internalType": "string",
          "name": "name",
          "type": "string"
        },
        {
          "internalType": "uint256",
          "name": "price",
          "type": "uint256"
        },
        {
          "internalType": "address payable",
          "name": "seller",
          "type": "address"
        },
        {
          "internalType": "address",
          "name": "owner",
          "type": "address"
        },
        {
          "internalType": "bool",
          "name": "isSold",
          "type": "bool"
        }
      ],
      "stateMutability": "view",
      "type": "function",
      "constant": true
    },
    {
      "inputs": [
        {
          "internalType": "string",
          "name": "_name",
          "type": "string"
        },
        {
          "internalType": "uint256",
          "name": "_price",
          "type": "uint256"
        }
      ],
      "name": "ListItemsForSale",
      "outputs": [],
      "stateMutability": "nonpayable",
      "type": "function"
    },
    {
      "inputs": [
        {
          "internalType": "uint256",
          "name": "_id",
          "type": "uint256"
        }
      ],
      "name": "PurchaseItem",
      "outputs": [],
      "stateMutability": "payable",
      "type": "function",
      "payable": true
    },
    {
      "inputs": [
        {
          "internalType": "uint256",
          "name": "_id",
          "type": "uint256"
        },
        {
          "internalType": "address",
          "name": "_to",
          "type": "address"
        }
      ],
      "name": "transferItemForFree",
      "outputs": [],
      "stateMutability": "nonpayable",
      "type": "function"
    },
    {
      "inputs": [
        {
          "internalType": "address",
          "name": "_owner",
          "type": "address"
        }
      ],
      "name": "getItemsByOwner",
      "outputs": [
        {
          "internalType": "uint256[]",
          "name": "",
          "type": "uint256[]"
        }
      ],
      "stateMutability": "view",
      "type": "function",
      "constant": true
    }
  ],
  "bytecode": "0x60806040526000805534801561001457600080fd5b506114ad806100246000396000f3fe6080604052600436106100705760003560e01c8063606303bc1161004e578063606303bc1461011a578063bfb231d214610143578063d4dce96b14610185578063eff01f8d146101ae57610070565b80632c67a8e5146100755780634232dc02146100b257806342cbf488146100dd575b600080fd5b34801561008157600080fd5b5061009c60048036038101906100979190610c61565b6101ca565b6040516100a99190611045565b60405180910390f35b3480156100be57600080fd5b506100c7610261565b6040516100d49190611127565b60405180910390f35b3480156100e957600080fd5b5061010460048036038101906100ff9190610c8a565b610267565b6040516101119190611127565b60405180910390f35b34801561012657600080fd5b50610141600480360381019061013c9190610cc6565b610298565b005b34801561014f57600080fd5b5061016a60048036038101906101659190610d1a565b6104b2565b60405161017c96959493929190611142565b60405180910390f35b34801561019157600080fd5b506101ac60048036038101906101a79190610d43565b6105c3565b005b6101c860048036038101906101c39190610d1a565b6106cd565b005b6060600260008373ffffffffffffffffffffffffffffffffffffffff1673ffffffffffffffffffffffffffffffffffffffff16815260200190815260200160002080548060200260200160405190810160405280929190818152602001828054801561025557602002820191906000526020600020905b815481526020019060010190808311610241575b50505050509050919050565b60005481565b6002602052816000526040600020818154811061028357600080fd5b90600052602060002001600091509150505481565b600081116102db576040517f08c379a00000000000000000000000000000000000000000000000000000000081526004016102d2906110c7565b60405180910390fd5b6000808154809291906102ed90611362565b91905055506040518060c0016040528060005481526020018381526020018281526020013373ffffffffffffffffffffffffffffffffffffffff1681526020013373ffffffffffffffffffffffffffffffffffffffff16815260200160001515815250600160008054815260200190815260200160002060008201518160000155602082015181600101908051906020019061038a929190610b2c565b506040820151816002015560608201518160030160006101000a81548173ffffffffffffffffffffffffffffffffffffffff021916908373ffffffffffffffffffffffffffffffffffffffff16021790555060808201518160040160006101000a81548173ffffffffffffffffffffffffffffffffffffffff021916908373ffffffffffffffffffffffffffffffffffffffff16021790555060a08201518160040160146101000a81548160ff021916908315150217905550905050600260003373ffffffffffffffffffffffffffffffffffffffff1673ffffffffffffffffffffffffffffffffffffffff16815260200190815260200160002060005490806001815401808255809150506001900390600052602060002001600090919091909150555050565b60016020528060005260406000206000915090508060000154908060010180546104db90611330565b80601f016020809104026020016040519081016040528092919081815260200182805461050790611330565b80156105545780601f1061052957610100808354040283529160200191610554565b820191906000526020600020905b81548152906001019060200180831161053757829003601f168201915b5050505050908060020154908060030160009054906101000a900473ffffffffffffffffffffffffffffffffffffffff16908060040160009054906101000a900473ffffffffffffffffffffffffffffffffffffffff16908060040160149054906101000a900460ff16905086565b60006001600084815260200190815260200160002090506000831180156105ec57506000548311155b61062b576040517f08c379a000000000000000000000000000000000000000000000000000000000815260040161062290611107565b60405180910390fd5b8060040160009054906101000a900473ffffffffffffffffffffffffffffffffffffffff1673ffffffffffffffffffffffffffffffffffffffff163373ffffffffffffffffffffffffffffffffffffffff16146106bd576040517f08c379a00000000000000000000000000000000000000000000000000000000081526004016106b490611067565b60405180910390fd5b6106c88333846108c7565b505050565b600060016000838152602001908152602001600020905060008211610727576040517f08c379a000000000000000000000000000000000000000000000000000000000815260040161071e906110a7565b60405180910390fd5b8060040160149054906101000a900460ff1615610779576040517f08c379a0000000000000000000000000000000000000000000000000000000008152600401610770906110e7565b60405180910390fd5b8060030160009054906101000a900473ffffffffffffffffffffffffffffffffffffffff1673ffffffffffffffffffffffffffffffffffffffff163373ffffffffffffffffffffffffffffffffffffffff16141561080c576040517f08c379a000000000000000000000000000000000000000000000000000000000815260040161080390611087565b60405180910390fd5b60018160040160146101000a81548160ff0219169083151502179055508060030160009054906101000a900473ffffffffffffffffffffffffffffffffffffffff1673ffffffffffffffffffffffffffffffffffffffff166108fc349081150290604051600060405180830381858888f19350505050158015610893573d6000803e3d6000fd5b506108c3828260030160009054906101000a900473ffffffffffffffffffffffffffffffffffffffff16336108c7565b5050565b6000600160008581526020019081526020016000209050818160040160006101000a81548173ffffffffffffffffffffffffffffffffffffffff021916908373ffffffffffffffffffffffffffffffffffffffff1602179055506000600260008573ffffffffffffffffffffffffffffffffffffffff1673ffffffffffffffffffffffffffffffffffffffff168152602001908152602001600020905060005b8180549050811015610abe57858282815481106109ad577f4e487b7100000000000000000000000000000000000000000000000000000000600052603260045260246000fd5b90600052602060002001541415610aab5781600183805490506109d09190611260565b81548110610a07577f4e487b7100000000000000000000000000000000000000000000000000000000600052603260045260246000fd5b9060005260206000200154828281548110610a4b577f4e487b7100000000000000000000000000000000000000000000000000000000600052603260045260246000fd5b906000526020600020018190555081805480610a90577f4e487b7100000000000000000000000000000000000000000000000000000000600052603160045260246000fd5b60019003818190600052602060002001600090559055610abe565b8080610ab690611362565b915050610967565b50600260008473ffffffffffffffffffffffffffffffffffffffff1673ffffffffffffffffffffffffffffffffffffffff1681526020019081526020016000208590806001815401808255809150506001900390600052602060002001600090919091909150555050505050565b828054610b3890611330565b90600052602060002090601f016020900481019282610b5a5760008555610ba1565b82601f10610b7357805160ff1916838001178555610ba1565b82800160010185558215610ba1579182015b82811115610ba0578251825591602001919060010190610b85565b5b509050610bae9190610bb2565b5090565b5b80821115610bcb576000816000905550600101610bb3565b5090565b6000610be2610bdd846111db565b6111aa565b905082815260208101848484011115610bfa57600080fd5b610c058482856112ee565b509392505050565b600081359050610c1c81611449565b92915050565b600082601f830112610c3357600080fd5b8135610c43848260208601610bcf565b91505092915050565b600081359050610c5b81611460565b92915050565b600060208284031215610c7357600080fd5b6000610c8184828501610c0d565b91505092915050565b60008060408385031215610c9d57600080fd5b6000610cab85828601610c0d565b9250506020610cbc85828601610c4c565b9150509250929050565b60008060408385031215610cd957600080fd5b600083013567ffffffffffffffff811115610cf357600080fd5b610cff85828601610c22565b9250506020610d1085828601610c4c565b9150509250929050565b600060208284031215610d2c57600080fd5b6000610d3a84828501610c4c565b91505092915050565b60008060408385031215610d5657600080fd5b6000610d6485828601610c4c565b9250506020610d7585828601610c0d565b9150509250929050565b6000610d8b8383611027565b60208301905092915050565b610da0816112a6565b82525050565b610daf81611294565b82525050565b6000610dc08261121b565b610dca818561123e565b9350610dd58361120b565b8060005b83811015610e06578151610ded8882610d7f565b9750610df883611231565b925050600181019050610dd9565b5085935050505092915050565b610e1c816112b8565b82525050565b6000610e2d82611226565b610e37818561124f565b9350610e478185602086016112fd565b610e5081611438565b840191505092915050565b6000610e6860258361124f565b91507f796f7520617265206e6f7420746865206f776e6572206f66207468697320707260008301527f6f647563740000000000000000000000000000000000000000000000000000006020830152604082019050919050565b6000610ece602a8361124f565b91507f53656c6c65722043616e6e6f7420427579205468656972206f776e2050726f6460008301527f7563742f204974656d73000000000000000000000000000000000000000000006020830152604082019050919050565b6000610f34600a8361124f565b91507f494e56414c4944204944000000000000000000000000000000000000000000006000830152602082019050919050565b6000610f74601c8361124f565b91507f5072696365206d7573742067726561746572207468616e207a65726f000000006000830152602082019050919050565b6000610fb460178361124f565b91507f4974656d7320416c726561647920536f6c6420447564650000000000000000006000830152602082019050919050565b6000610ff460148361124f565b91507f4954454d20444f4553204e4f54204558495354530000000000000000000000006000830152602082019050919050565b611030816112e4565b82525050565b61103f816112e4565b82525050565b6000602082019050818103600083015261105f8184610db5565b905092915050565b6000602082019050818103600083015261108081610e5b565b9050919050565b600060208201905081810360008301526110a081610ec1565b9050919050565b600060208201905081810360008301526110c081610f27565b9050919050565b600060208201905081810360008301526110e081610f67565b9050919050565b6000602082019050818103600083015261110081610fa7565b9050919050565b6000602082019050818103600083015261112081610fe7565b9050919050565b600060208201905061113c6000830184611036565b92915050565b600060c0820190506111576000830189611036565b81810360208301526111698188610e22565b90506111786040830187611036565b6111856060830186610d97565b6111926080830185610da6565b61119f60a0830184610e13565b979650505050505050565b6000604051905081810181811067ffffffffffffffff821117156111d1576111d0611409565b5b8060405250919050565b600067ffffffffffffffff8211156111f6576111f5611409565b5b601f19601f8301169050602081019050919050565b6000819050602082019050919050565b600081519050919050565b600081519050919050565b6000602082019050919050565b600082825260208201905092915050565b600082825260208201905092915050565b600061126b826112e4565b9150611276836112e4565b925082821015611289576112886113ab565b5b828203905092915050565b600061129f826112c4565b9050919050565b60006112b1826112c4565b9050919050565b60008115159050919050565b600073ffffffffffffffffffffffffffffffffffffffff82169050919050565b6000819050919050565b82818337600083830152505050565b60005b8381101561131b578082015181840152602081019050611300565b8381111561132a576000848401525b50505050565b6000600282049050600182168061134857607f821691505b6020821081141561135c5761135b6113da565b5b50919050565b600061136d826112e4565b91507fffffffffffffffffffffffffffffffffffffffffffffffffffffffffffffffff8214156113a05761139f6113ab565b5b600182019050919050565b7f4e487b7100000000000000000000000000000000000000000000000000000000600052601160045260246000fd5b7f4e487b7100000000000000000000000000000000000000000000000000000000600052602260045260246000fd5b7f4e487b7100000000000000000000000000000000000000000000000000000000600052604160045260246000fd5b6000601f19601f8301169050919050565b61145281611294565b811461145d57600080fd5b50565b611469816112e4565b811461147457600080fd5b5056fea264697066735822122098273dc97b418bec18a880414d523f5636941286023e3aca7c337e5ce765431a64736f6c63430008000033",
  "immutableReferences": {},
  "source": "// SPDX-License-Identifier: MIT\r\npragma solidity ^0.8.0;\r\n\r\ncontract MarketPlace{\r\n\r\n    struct ItemStruct{\r\n        uint id;\r\n        string name;\r\n        uint price;\r\n        address payable seller;\r\n        address owner;\r\n        bool isSold;\r\n    }\r\n\r\n    uint  public  itemcount =0 ;\r\n    mapping (uint=> ItemStruct) public items;\r\n    mapping (address=>uint[]) public OwnedItems;\r\n\r\n\r\n    function ListItemsForSale(string memory _name, uint _price) public {\r\n        require(_price>0, \"Price must greater than zero\");\r\n        itemcount++;\r\n        items[itemcount]= ItemStruct(itemcount,_name,_price, payable(msg.sender), msg.sender, false);\r\n        OwnedItems[msg.sender].push(itemcount);\r\n    }\r\n\r\n\r\n    function _transferOwnerShip(uint _id, address _from, address _to) internal  {\r\n        ItemStruct storage Selected_item =items[_id];\r\n        Selected_item.owner= _to ; //transfer ownership to _toAddress\r\n        uint[] storage fromitems = OwnedItems[_from]; //contains all items of sender, need to remove the sold item from him/her\r\n        \r\n        //remove item from prevous owner item list\r\n        for(uint i=0; i < fromitems.length; i++){\r\n            if(fromitems[i] == _id){\r\n                fromitems[i]=fromitems[fromitems.length -1];\r\n                fromitems.pop();\r\n                break ;\r\n            }\r\n        }\r\n        //add items to new owner's List\r\n        OwnedItems[_to].push(_id);\r\n    }\r\n\r\n\r\n    function PurchaseItem(uint _id) public payable {\r\n        ItemStruct storage Selecteditem =items[_id];\r\n        require(_id > 0, \"INVALID ID\");\r\n        require(!Selecteditem.isSold,\"Items Already Sold Dude\");\r\n        require(msg.sender != Selecteditem.seller, \"Seller Cannot Buy Their own Product/ Items\");\r\n\r\n        Selecteditem.isSold=true; //marking item sold\r\n        Selecteditem.seller.transfer(msg.value); // sending money to seller account\r\n        _transferOwnerShip(_id, Selecteditem.seller, msg.sender); //transfering item ownership to receipent\r\n    }\r\n\r\n    function transferItemForFree(uint _id, address _to) public{ //transferring items without transferring any ethers\r\n        ItemStruct storage selectItem =items[_id];\r\n        require(_id>0 && _id<= itemcount, \"ITEM DOES NOT EXISTS\");\r\n        require(msg.sender == selectItem.owner, \"you are not the owner of this product\");\r\n        _transferOwnerShip(_id, msg.sender, _to);\r\n    }\r\n\r\n    function getItemsByOwner(address _owner) public view returns (uint[] memory){\r\n        return  OwnedItems[_owner];\r\n    }\r\n}\r\n",
  "sourcePath": "C:\\Users\\hassa\\OneDrive\\Desktop\\Marketplace\\contracts\\Marketplace.sol",
  "compiler": {
    "name": "solc",
    "version": "0.8.0+commit.c7dfd78e.Emscripten.clang"
  },
  "schemaVersion": "3.4.16",
  "updatedAt": "2025-01-14T17:19:51.061Z",
  "networkType": "ethereum",
  "devdoc": {
    "kind": "dev",
    "methods": {},
    "version": 1
  },
  "userdoc": {
    "kind": "user",
    "methods": {},
    "version": 1
  }
}