{
  "contractName": "MarketPlace",
  "abi": [
    {
      "anonymous": false,
      "inputs": [
        {
          "indexed": true,
          "internalType": "uint256",
          "name": "id",
          "type": "uint256"
        },
        {
          "indexed": false,
          "internalType": "address",
          "name": "seller",
          "type": "address"
        },
        {
          "indexed": false,
          "internalType": "uint256",
          "name": "amount",
          "type": "uint256"
        }
      ],
      "name": "FundsReleased",
      "type": "event"
    },
    {
      "anonymous": false,
      "inputs": [
        {
          "indexed": true,
          "internalType": "uint256",
          "name": "id",
          "type": "uint256"
        }
      ],
      "name": "ItemDelivered",
      "type": "event"
    },
    {
      "anonymous": false,
      "inputs": [
        {
          "indexed": true,
          "internalType": "uint256",
          "name": "id",
          "type": "uint256"
        },
        {
          "indexed": false,
          "internalType": "string",
          "name": "name",
          "type": "string"
        },
        {
          "indexed": false,
          "internalType": "uint256",
          "name": "price",
          "type": "uint256"
        },
        {
          "indexed": false,
          "internalType": "string",
          "name": "imageURI",
          "type": "string"
        }
      ],
      "name": "ItemListed",
      "type": "event"
    },
    {
      "anonymous": false,
      "inputs": [
        {
          "indexed": true,
          "internalType": "uint256",
          "name": "id",
          "type": "uint256"
        },
        {
          "indexed": false,
          "internalType": "address",
          "name": "buyer",
          "type": "address"
        },
        {
          "indexed": false,
          "internalType": "uint256",
          "name": "price",
          "type": "uint256"
        }
      ],
      "name": "ItemSold",
      "type": "event"
    },
    {
      "inputs": [
        {
          "internalType": "address",
          "name": "",
          "type": "address"
        },
        {
          "internalType": "uint256",
          "name": "",
          "type": "uint256"
        }
      ],
      "name": "OwnedItems",
      "outputs": [
        {
          "internalType": "uint256",
          "name": "",
          "type": "uint256"
        }
      ],
      "stateMutability": "view",
      "type": "function",
      "constant": true
    },
    {
      "inputs": [
        {
          "internalType": "uint256",
          "name": "",
          "type": "uint256"
        }
      ],
      "name": "escrowBalances",
      "outputs": [
        {
          "internalType": "uint256",
          "name": "",
          "type": "uint256"
        }
      ],
      "stateMutability": "view",
      "type": "function",
      "constant": true
    },
    {
      "inputs": [],
      "name": "itemcount",
      "outputs": [
        {
          "internalType": "uint256",
          "name": "",
          "type": "uint256"
        }
      ],
      "stateMutability": "view",
      "type": "function",
      "constant": true
    },
    {
      "inputs": [
        {
          "internalType": "uint256",
          "name": "",
          "type": "uint256"
        }
      ],
      "name": "items",
      "outputs": [
        {
          "internalType": "uint256",
          "name": "id",
          "type": "uint256"
        },
        {
          "internalType": "string",
          "name": "name",
          "type": "string"
        },
        {
          "internalType": "uint256",
          "name": "price",
          "type": "uint256"
        },
        {
          "internalType": "address payable",
          "name": "seller",
          "type": "address"
        },
        {
          "internalType": "address",
          "name": "owner",
          "type": "address"
        },
        {
          "internalType": "bool",
          "name": "isSold",
          "type": "bool"
        },
        {
          "internalType": "string",
          "name": "imageURI",
          "type": "string"
        },
        {
          "internalType": "bool",
          "name": "isDelivered",
          "type": "bool"
        },
        {
          "internalType": "bool",
          "name": "isFundsReleased",
          "type": "bool"
        }
      ],
      "stateMutability": "view",
      "type": "function",
      "constant": true
    },
    {
      "inputs": [
        {
          "internalType": "string",
          "name": "_name",
          "type": "string"
        },
        {
          "internalType": "uint256",
          "name": "_price",
          "type": "uint256"
        },
        {
          "internalType": "string",
          "name": "_imageURI",
          "type": "string"
        }
      ],
      "name": "ListItemsForSale",
      "outputs": [],
      "stateMutability": "nonpayable",
      "type": "function"
    },
    {
      "inputs": [
        {
          "internalType": "uint256",
          "name": "_id",
          "type": "uint256"
        }
      ],
      "name": "PurchaseItem",
      "outputs": [],
      "stateMutability": "payable",
      "type": "function",
      "payable": true
    },
    {
      "inputs": [
        {
          "internalType": "uint256",
          "name": "_id",
          "type": "uint256"
        }
      ],
      "name": "confirmDelivery",
      "outputs": [],
      "stateMutability": "nonpayable",
      "type": "function"
    },
    {
      "inputs": [
        {
          "internalType": "uint256",
          "name": "_id",
          "type": "uint256"
        },
        {
          "internalType": "address",
          "name": "_to",
          "type": "address"
        }
      ],
      "name": "transferItemForFree",
      "outputs": [],
      "stateMutability": "nonpayable",
      "type": "function"
    },
    {
      "inputs": [
        {
          "internalType": "address",
          "name": "_owner",
          "type": "address"
        }
      ],
      "name": "getItemsByOwner",
      "outputs": [
        {
          "internalType": "uint256[]",
          "name": "",
          "type": "uint256[]"
        }
      ],
      "stateMutability": "view",
      "type": "function",
      "constant": true
    }
  ],
  "bytecode": "0x60806040526000805534801561001457600080fd5b50611f28806100246000396000f3fe6080604052600436106100865760003560e01c8063a236e81c11610059578063a236e81c1461016d578063bfb231d214610196578063d4dce96b146101db578063eff01f8d14610204578063fd84cb971461022057610086565b80632c67a8e51461008b5780634232dc02146100c857806342cbf488146100f357806343ebf45a14610130575b600080fd5b34801561009757600080fd5b506100b260048036038101906100ad91906112a2565b610249565b6040516100bf9190611912565b60405180910390f35b3480156100d457600080fd5b506100dd6102e0565b6040516100ea9190611b39565b60405180910390f35b3480156100ff57600080fd5b5061011a600480360381019061011591906112cb565b6102e6565b6040516101279190611b39565b60405180910390f35b34801561013c57600080fd5b5061015760048036038101906101529190611386565b610317565b6040516101649190611b39565b60405180910390f35b34801561017957600080fd5b50610194600480360381019061018f9190611307565b61032f565b005b3480156101a257600080fd5b506101bd60048036038101906101b89190611386565b610643565b6040516101d299989796959493929190611b54565b60405180910390f35b3480156101e757600080fd5b5061020260048036038101906101fd91906113af565b610808565b005b61021e60048036038101906102199190611386565b610912565b005b34801561022c57600080fd5b5061024760048036038101906102429190611386565b610b39565b005b6060600260008373ffffffffffffffffffffffffffffffffffffffff1673ffffffffffffffffffffffffffffffffffffffff1681526020019081526020016000208054806020026020016040519081016040528092919081815260200182805480156102d457602002820191906000526020600020905b8154815260200190600101908083116102c0575b50505050509050919050565b60005481565b6002602052816000526040600020818154811061030257600080fd5b90600052602060002001600091509150505481565b60036020528060005260406000206000915090505481565b60008211610372576040517f08c379a000000000000000000000000000000000000000000000000000000000815260040161036990611999565b60405180910390fd5b60008151116103b6576040517f08c379a00000000000000000000000000000000000000000000000000000000081526004016103ad90611a99565b60405180910390fd5b6000808154809291906103c890611ddd565b919050555060405180610120016040528060005481526020018481526020018381526020013373ffffffffffffffffffffffffffffffffffffffff1681526020013373ffffffffffffffffffffffffffffffffffffffff16815260200160001515815260200182815260200160001515815260200160001515815250600160008054815260200190815260200160002060008201518160000155602082015181600101908051906020019061047e92919061116d565b506040820151816002015560608201518160030160006101000a81548173ffffffffffffffffffffffffffffffffffffffff021916908373ffffffffffffffffffffffffffffffffffffffff16021790555060808201518160040160006101000a81548173ffffffffffffffffffffffffffffffffffffffff021916908373ffffffffffffffffffffffffffffffffffffffff16021790555060a08201518160040160146101000a81548160ff02191690831515021790555060c082015181600501908051906020019061055392919061116d565b5060e08201518160060160006101000a81548160ff0219169083151502179055506101008201518160060160016101000a81548160ff021916908315150217905550905050600260003373ffffffffffffffffffffffffffffffffffffffff1673ffffffffffffffffffffffffffffffffffffffff16815260200190815260200160002060005490806001815401808255809150506001900390600052602060002001600090919091909150556000547fc838f30398c32a103f73407508588283e5369ba19e0b16d9b1e8a468f9c8632684848460405161063693929190611934565b60405180910390a2505050565b600160205280600052604060002060009150905080600001549080600101805461066c90611dab565b80601f016020809104026020016040519081016040528092919081815260200182805461069890611dab565b80156106e55780601f106106ba576101008083540402835291602001916106e5565b820191906000526020600020905b8154815290600101906020018083116106c857829003601f168201915b5050505050908060020154908060030160009054906101000a900473ffffffffffffffffffffffffffffffffffffffff16908060040160009054906101000a900473ffffffffffffffffffffffffffffffffffffffff16908060040160149054906101000a900460ff169080600501805461075f90611dab565b80601f016020809104026020016040519081016040528092919081815260200182805461078b90611dab565b80156107d85780601f106107ad576101008083540402835291602001916107d8565b820191906000526020600020905b8154815290600101906020018083116107bb57829003601f168201915b5050505050908060060160009054906101000a900460ff16908060060160019054906101000a900460ff16905089565b600060016000848152602001908152602001600020905060008311801561083157506000548311155b610870576040517f08c379a000000000000000000000000000000000000000000000000000000000815260040161086790611af9565b60405180910390fd5b8060040160009054906101000a900473ffffffffffffffffffffffffffffffffffffffff1673ffffffffffffffffffffffffffffffffffffffff163373ffffffffffffffffffffffffffffffffffffffff1614610902576040517f08c379a00000000000000000000000000000000000000000000000000000000081526004016108f990611a19565b60405180910390fd5b61090d833384610cdc565b505050565b60006001600083815260200190815260200160002090506000821161096c576040517f08c379a000000000000000000000000000000000000000000000000000000000815260040161096390611a59565b60405180910390fd5b8060040160149054906101000a900460ff16156109be576040517f08c379a00000000000000000000000000000000000000000000000000000000081526004016109b590611979565b60405180910390fd5b8060030160009054906101000a900473ffffffffffffffffffffffffffffffffffffffff1673ffffffffffffffffffffffffffffffffffffffff163373ffffffffffffffffffffffffffffffffffffffff161415610a51576040517f08c379a0000000000000000000000000000000000000000000000000000000008152600401610a4890611ab9565b60405180910390fd5b80600201543414610a97576040517f08c379a0000000000000000000000000000000000000000000000000000000008152600401610a8e906119f9565b60405180910390fd5b60018160040160146101000a81548160ff021916908315150217905550346003600084815260200190815260200160002081905550610afb828260030160009054906101000a900473ffffffffffffffffffffffffffffffffffffffff1633610cdc565b817fa574c741071bb18f51fa88c17aeefec514bebf670ca22a3736fba6504ecbb7633334604051610b2d9291906118e9565b60405180910390a25050565b60006001600083815260200190815260200160002090508060040160009054906101000a900473ffffffffffffffffffffffffffffffffffffffff1673ffffffffffffffffffffffffffffffffffffffff163373ffffffffffffffffffffffffffffffffffffffff1614610be2576040517f08c379a0000000000000000000000000000000000000000000000000000000008152600401610bd990611ad9565b60405180910390fd5b8060040160149054906101000a900460ff16610c33576040517f08c379a0000000000000000000000000000000000000000000000000000000008152600401610c2a90611a39565b60405180910390fd5b8060060160009054906101000a900460ff1615610c85576040517f08c379a0000000000000000000000000000000000000000000000000000000008152600401610c7c906119b9565b60405180910390fd5b60018160060160006101000a81548160ff021916908315150217905550817fd2f1cdd76b4e7bfba9c07af47c5c4f187ffbbd992b4fa1afce4df6a00a166e8560405160405180910390a2610cd882610f41565b5050565b6000600160008581526020019081526020016000209050818160040160006101000a81548173ffffffffffffffffffffffffffffffffffffffff021916908373ffffffffffffffffffffffffffffffffffffffff1602179055506000600260008573ffffffffffffffffffffffffffffffffffffffff1673ffffffffffffffffffffffffffffffffffffffff168152602001908152602001600020905060005b8180549050811015610ed35785828281548110610dc2577f4e487b7100000000000000000000000000000000000000000000000000000000600052603260045260246000fd5b90600052602060002001541415610ec0578160018380549050610de59190611ca5565b81548110610e1c577f4e487b7100000000000000000000000000000000000000000000000000000000600052603260045260246000fd5b9060005260206000200154828281548110610e60577f4e487b7100000000000000000000000000000000000000000000000000000000600052603260045260246000fd5b906000526020600020018190555081805480610ea5577f4e487b7100000000000000000000000000000000000000000000000000000000600052603160045260246000fd5b60019003818190600052602060002001600090559055610ed3565b8080610ecb90611ddd565b915050610d7c565b50600260008473ffffffffffffffffffffffffffffffffffffffff1673ffffffffffffffffffffffffffffffffffffffff1681526020019081526020016000208590806001815401808255809150506001900390600052602060002001600090919091909150555050505050565b60006001600083815260200190815260200160002090508060060160009054906101000a900460ff16610fa9576040517f08c379a0000000000000000000000000000000000000000000000000000000008152600401610fa090611a79565b60405180910390fd5b8060060160019054906101000a900460ff1615610ffb576040517f08c379a0000000000000000000000000000000000000000000000000000000008152600401610ff290611b19565b60405180910390fd5b6000600360008481526020019081526020016000205411611051576040517f08c379a0000000000000000000000000000000000000000000000000000000008152600401611048906119d9565b60405180910390fd5b6000600360008481526020019081526020016000205490506000600360008581526020019081526020016000208190555060018260060160016101000a81548160ff0219169083151502179055508160030160009054906101000a900473ffffffffffffffffffffffffffffffffffffffff1673ffffffffffffffffffffffffffffffffffffffff166108fc829081150290604051600060405180830381858888f19350505050158015611109573d6000803e3d6000fd5b50827f6e3c6096795c8298a218b2cfb8bde42726ff7c9a3d27b4d3ba41ab7f74feb5fb8360030160009054906101000a900473ffffffffffffffffffffffffffffffffffffffff16836040516111609291906118c0565b60405180910390a2505050565b82805461117990611dab565b90600052602060002090601f01602090048101928261119b57600085556111e2565b82601f106111b457805160ff19168380011785556111e2565b828001600101855582156111e2579182015b828111156111e15782518255916020019190600101906111c6565b5b5090506111ef91906111f3565b5090565b5b8082111561120c5760008160009055506001016111f4565b5090565b600061122361121e84611c20565b611bef565b90508281526020810184848401111561123b57600080fd5b611246848285611d69565b509392505050565b60008135905061125d81611ec4565b92915050565b600082601f83011261127457600080fd5b8135611284848260208601611210565b91505092915050565b60008135905061129c81611edb565b92915050565b6000602082840312156112b457600080fd5b60006112c28482850161124e565b91505092915050565b600080604083850312156112de57600080fd5b60006112ec8582860161124e565b92505060206112fd8582860161128d565b9150509250929050565b60008060006060848603121561131c57600080fd5b600084013567ffffffffffffffff81111561133657600080fd5b61134286828701611263565b93505060206113538682870161128d565b925050604084013567ffffffffffffffff81111561137057600080fd5b61137c86828701611263565b9150509250925092565b60006020828403121561139857600080fd5b60006113a68482850161128d565b91505092915050565b600080604083850312156113c257600080fd5b60006113d08582860161128d565b92505060206113e18582860161124e565b9150509250929050565b60006113f783836118a2565b60208301905092915050565b61140c81611d33565b82525050565b61141b81611ceb565b82525050565b61142a81611cd9565b82525050565b600061143b82611c60565b6114458185611c83565b935061145083611c50565b8060005b8381101561148157815161146888826113eb565b975061147383611c76565b925050600181019050611454565b5085935050505092915050565b61149781611cfd565b82525050565b60006114a882611c6b565b6114b28185611c94565b93506114c2818560208601611d78565b6114cb81611eb3565b840191505092915050565b60006114e3601283611c94565b91507f4974656d7320416c726561647920536f6c6400000000000000000000000000006000830152602082019050919050565b6000611523601f83611c94565b91507f5072696365206d7573742062652067726561746572207468616e207a65726f006000830152602082019050919050565b6000611563601a83611c94565b91507f44656c697665727920616c726561647920636f6e6669726d65640000000000006000830152602082019050919050565b60006115a3601283611c94565b91507f4e6f2066756e647320696e20657363726f7700000000000000000000000000006000830152602082019050919050565b60006115e3601883611c94565b91507f496e636f7272656374207061796d656e7420616d6f756e7400000000000000006000830152602082019050919050565b6000611623602583611c94565b91507f796f7520617265206e6f7420746865206f776e6572206f66207468697320707260008301527f6f647563740000000000000000000000000000000000000000000000000000006020830152604082019050919050565b6000611689601183611c94565b91507f4974656d206e6f7420736f6c64207965740000000000000000000000000000006000830152602082019050919050565b60006116c9600a83611c94565b91507f494e56414c4944204944000000000000000000000000000000000000000000006000830152602082019050919050565b6000611709601a83611c94565b91507f44656c6976657279206e6f7420636f6e6669726d6564207965740000000000006000830152602082019050919050565b6000611749601983611c94565b91507f496d616765205552492063616e6e6f7420626520656d707479000000000000006000830152602082019050919050565b6000611789602383611c94565b91507f53656c6c65722043616e6e6f7420427579205468656972206f776e2050726f6460008301527f75637400000000000000000000000000000000000000000000000000000000006020830152604082019050919050565b60006117ef601f83611c94565b91507f4f6e6c792062757965722063616e20636f6e6669726d2064656c6976657279006000830152602082019050919050565b600061182f601483611c94565b91507f4954454d20444f4553204e4f54204558495354530000000000000000000000006000830152602082019050919050565b600061186f601683611c94565b91507f46756e647320616c72656164792072656c6561736564000000000000000000006000830152602082019050919050565b6118ab81611d29565b82525050565b6118ba81611d29565b82525050565b60006040820190506118d56000830185611403565b6118e260208301846118b1565b9392505050565b60006040820190506118fe6000830185611421565b61190b60208301846118b1565b9392505050565b6000602082019050818103600083015261192c8184611430565b905092915050565b6000606082019050818103600083015261194e818661149d565b905061195d60208301856118b1565b818103604083015261196f818461149d565b9050949350505050565b60006020820190508181036000830152611992816114d6565b9050919050565b600060208201905081810360008301526119b281611516565b9050919050565b600060208201905081810360008301526119d281611556565b9050919050565b600060208201905081810360008301526119f281611596565b9050919050565b60006020820190508181036000830152611a12816115d6565b9050919050565b60006020820190508181036000830152611a3281611616565b9050919050565b60006020820190508181036000830152611a528161167c565b9050919050565b60006020820190508181036000830152611a72816116bc565b9050919050565b60006020820190508181036000830152611a92816116fc565b9050919050565b60006020820190508181036000830152611ab28161173c565b9050919050565b60006020820190508181036000830152611ad28161177c565b9050919050565b60006020820190508181036000830152611af2816117e2565b9050919050565b60006020820190508181036000830152611b1281611822565b9050919050565b60006020820190508181036000830152611b3281611862565b9050919050565b6000602082019050611b4e60008301846118b1565b92915050565b600061012082019050611b6a600083018c6118b1565b8181036020830152611b7c818b61149d565b9050611b8b604083018a6118b1565b611b986060830189611412565b611ba56080830188611421565b611bb260a083018761148e565b81810360c0830152611bc4818661149d565b9050611bd360e083018561148e565b611be161010083018461148e565b9a9950505050505050505050565b6000604051905081810181811067ffffffffffffffff82111715611c1657611c15611e84565b5b8060405250919050565b600067ffffffffffffffff821115611c3b57611c3a611e84565b5b601f19601f8301169050602081019050919050565b6000819050602082019050919050565b600081519050919050565b600081519050919050565b6000602082019050919050565b600082825260208201905092915050565b600082825260208201905092915050565b6000611cb082611d29565b9150611cbb83611d29565b925082821015611cce57611ccd611e26565b5b828203905092915050565b6000611ce482611d09565b9050919050565b6000611cf682611d09565b9050919050565b60008115159050919050565b600073ffffffffffffffffffffffffffffffffffffffff82169050919050565b6000819050919050565b6000611d3e82611d45565b9050919050565b6000611d5082611d57565b9050919050565b6000611d6282611d09565b9050919050565b82818337600083830152505050565b60005b83811015611d96578082015181840152602081019050611d7b565b83811115611da5576000848401525b50505050565b60006002820490506001821680611dc357607f821691505b60208210811415611dd757611dd6611e55565b5b50919050565b6000611de882611d29565b91507fffffffffffffffffffffffffffffffffffffffffffffffffffffffffffffffff821415611e1b57611e1a611e26565b5b600182019050919050565b7f4e487b7100000000000000000000000000000000000000000000000000000000600052601160045260246000fd5b7f4e487b7100000000000000000000000000000000000000000000000000000000600052602260045260246000fd5b7f4e487b7100000000000000000000000000000000000000000000000000000000600052604160045260246000fd5b6000601f19601f8301169050919050565b611ecd81611cd9565b8114611ed857600080fd5b50565b611ee481611d29565b8114611eef57600080fd5b5056fea2646970667358221220de01ae6f05c14da5ef9067a42e88d4b5925ba35a7b427d30bc2c37e99275c91a64736f6c63430008000033",
  "immutableReferences": {},
  "source": "// SPDX-License-Identifier: MIT\r\npragma solidity ^0.8.0;\r\n\r\ncontract MarketPlace {\r\n    struct ItemStruct {\r\n        uint id;\r\n        string name;\r\n        uint price;\r\n        address payable seller;\r\n        address owner;\r\n        bool isSold;\r\n        string imageURI;\r\n        bool isDelivered;\r\n        bool isFundsReleased;\r\n    }\r\n\r\n    uint public itemcount = 0;\r\n    mapping(uint => ItemStruct) public items;\r\n    mapping(address => uint[]) public OwnedItems;\r\n    mapping(uint => uint) public escrowBalances;\r\n\r\n    event ItemListed(uint indexed id, string name, uint price, string imageURI);\r\n    event ItemSold(uint indexed id, address buyer, uint price);\r\n    event ItemDelivered(uint indexed id);\r\n    event FundsReleased(uint indexed id, address seller, uint amount);\r\n\r\n    function ListItemsForSale(string memory _name, uint _price, string memory _imageURI) public {\r\n        require(_price > 0, \"Price must be greater than zero\");\r\n        require(bytes(_imageURI).length > 0, \"Image URI cannot be empty\");\r\n        \r\n        itemcount++;\r\n        items[itemcount] = ItemStruct(\r\n            itemcount,\r\n            _name,\r\n            _price,\r\n            payable(msg.sender),\r\n            msg.sender,\r\n            false,\r\n            _imageURI,\r\n            false,\r\n            false\r\n        );\r\n        \r\n        OwnedItems[msg.sender].push(itemcount);\r\n        emit ItemListed(itemcount, _name, _price, _imageURI);\r\n    }\r\n\r\n    function _transferOwnerShip(uint _id, address _from, address _to) internal {\r\n        ItemStruct storage Selected_item = items[_id];\r\n        Selected_item.owner = _to;\r\n        uint[] storage fromitems = OwnedItems[_from];\r\n        \r\n        for(uint i = 0; i < fromitems.length; i++) {\r\n            if(fromitems[i] == _id) {\r\n                fromitems[i] = fromitems[fromitems.length - 1];\r\n                fromitems.pop();\r\n                break;\r\n            }\r\n        }\r\n        OwnedItems[_to].push(_id);\r\n    }\r\n\r\n    function PurchaseItem(uint _id) public payable {\r\n        ItemStruct storage Selecteditem = items[_id];\r\n        require(_id > 0, \"INVALID ID\");\r\n        require(!Selecteditem.isSold, \"Items Already Sold\");\r\n        require(msg.sender != Selecteditem.seller, \"Seller Cannot Buy Their own Product\");\r\n        require(msg.value == Selecteditem.price, \"Incorrect payment amount\");\r\n\r\n        Selecteditem.isSold = true;\r\n        escrowBalances[_id] = msg.value;\r\n        _transferOwnerShip(_id, Selecteditem.seller, msg.sender);\r\n        \r\n        emit ItemSold(_id, msg.sender, msg.value);\r\n    }\r\n\r\n    function confirmDelivery(uint _id) public {\r\n        ItemStruct storage item = items[_id];\r\n        require(msg.sender == item.owner, \"Only buyer can confirm delivery\");\r\n        require(item.isSold, \"Item not sold yet\");\r\n        require(!item.isDelivered, \"Delivery already confirmed\");\r\n        \r\n        item.isDelivered = true;\r\n        emit ItemDelivered(_id);\r\n        \r\n        // Auto-release funds to seller after delivery confirmation\r\n        releaseFunds(_id);\r\n    }\r\n\r\n    function releaseFunds(uint _id) internal {\r\n        ItemStruct storage item = items[_id];\r\n        require(item.isDelivered, \"Delivery not confirmed yet\");\r\n        require(!item.isFundsReleased, \"Funds already released\");\r\n        require(escrowBalances[_id] > 0, \"No funds in escrow\");\r\n\r\n        uint amount = escrowBalances[_id];\r\n        escrowBalances[_id] = 0;\r\n        item.isFundsReleased = true;\r\n        item.seller.transfer(amount);\r\n        \r\n        emit FundsReleased(_id, item.seller, amount);\r\n    }\r\n\r\n    function transferItemForFree(uint _id, address _to) public {\r\n        ItemStruct storage selectItem = items[_id];\r\n        require(_id > 0 && _id <= itemcount, \"ITEM DOES NOT EXISTS\");\r\n        require(msg.sender == selectItem.owner, \"you are not the owner of this product\");\r\n        _transferOwnerShip(_id, msg.sender, _to);\r\n    }\r\n\r\n    function getItemsByOwner(address _owner) public view returns (uint[] memory) {\r\n        return OwnedItems[_owner];\r\n    }\r\n}",
  "sourcePath": "C:\\Users\\hassa\\OneDrive\\Desktop\\Marketplace\\contracts\\Marketplace.sol",
  "compiler": {
    "name": "solc",
    "version": "0.8.0+commit.c7dfd78e.Emscripten.clang"
  },
  "schemaVersion": "3.4.16",
  "updatedAt": "2025-01-15T20:41:05.880Z",
  "networkType": "ethereum",
  "devdoc": {
    "kind": "dev",
    "methods": {},
    "version": 1
  },
  "userdoc": {
    "kind": "user",
    "methods": {},
    "version": 1
  }
}